:02000000802E50
:100030007590FF75B0FF758900758C00758A0A751B
:100040008DE0758B183090FD7590002090FD75B097
:10005000FFD28E308F047D1380493090EE75B0FE54
:1000600075A071D28C308DFDC28DC28C800075B0B0
:10007000FD75A075D28C308DFDC28DC28C8000754F
:10008000B0FB75A006D28C308DFDC28DC28C800075
:1000900075B0F775A05FD28C308DFDC28DC28CDD3E
:1000A000B980007E4DC28EC28F11B5DEFCC28EC2F9
:1000B0008F7D1380A5D28E75900075B0FF308FFDB7
:0600C000C28EC28F222255
:00000001FF
